:020000040800F2
:10000000506B002021130008B1040008B30400085D
:10001000B7040008BB040008BF040008000000008B
:10002000000000000000000000000000C304000801
:10003000C504000800000000C7040008C904000847
:100040003B1300083B1300083B1300083B13000858
:100050003B1300083B1300083B1300083B13000848
:100060003B1300083B130008CB0400083B130008B7
:100070003B1300083B1300083B1300083B13000828
:10008000FF0400083B1300083B1300083B13000863
:100090003B1300083B1300083B1300083B13000808
:1000A0003B1300083B1300083B1300083B130008F8
:1000B0003B1300083B1300083B1300083B130008E8
:1000C0003B1300083B1300083B1300083B130008D8
:1000D0003B1300083B1300083B1300083B130008C8
:1000E0003B1300083B1300083B1300083B130008B8
:1000F0003B1300083B1300083B1300083B130008A8
:100100003B1300083B130008DD0500083B13000803
:100110003B1300083B1300083B1300083B13000887
:10012000A30500083B1300083B1300083B1300081D
:100130003B1300083B1300083B1300083B13000867
:100140003B1300083B1300083B1300083B13000857
:100150003B1300083B1300083B1300083B13000847
:100160003B1300083B1300083B1300083B13000837
:100170003B1300083B1300083B1300083B13000827
:100180003B1300083B13000800F002F800F03CF8B5
:100190000AA090E8000C82448344AAF10107DA45E2
:1001A00001D100F031F8AFF2090EBAE80F0013F0F8
:1001B000010F18BFFB1A43F001031847243E00004B
:1001C000443E0000103A24BF78C878C1FAD85207DC
:1001D00024BF30C830C144BF04680C6070470000C1
:1001E0000023002400250026103A28BF78C1FBD840
:1001F000520728BF30C148BF0B6070471FB503F0DE
:10020000D9FE1FBD10B510BD03F01BFB1146FFF753
:10021000F5FF00F0FFF803F039FB03B4FFF7F2FF3E
:1002200003BC03F041FB000000B59BB00121880531
:1002300001F02AFC0121080201F080FC002002905C
:1002400035480390354804900020059040F66E60D4
:100250000690002007904FF48060089040000990BD
:1002600080000A9040110B9040020C9000200D90ED
:1002700001200E9000200F90109002A9284803F052
:10028000F1F80121264803F027F901221021244822
:1002900003F0AFF90820009003208DF8040000203F
:1002A0008DF8070069461F4801F050F900201190B1
:1002B00012901390149011A801F0E8FF00201590FF
:1002C0008DF858008DF859004FF0805017904FF07E
:1002D000106018900020199001208DF8680015A971
:1002E0000D484C3801F0A3FF01231A460D210A489E
:1002F0004C3802F022F8012107484C3802F0C8F8C7
:10030000012105484C3802F0B8F8012102484C3868
:1003100001F0D3FF1BB000BD4C2001404000002085
:10032000106402400008024010B543F69820574977
:1003300008601920564908600021800702F0D4FAAD
:100340000021544802F0D0FA002053490870534964
:10035000087000F057FB00BF4F4800780028FBD022
:1003600010BD08B54FF4A06000F0FAFF32208DF800
:10037000000000208DF801008DF8020001208DF8AA
:100380000300684600F0F1FF38208DF800000120DE
:100390008DF8010000208DF8020001208DF8030087
:1003A000684600F0E2FF10208DF8000002208DF872
:1003B000010000208DF8020001208DF8030068463E
:1003C00000F0D3FF08BD1CB501208DF8040000200B
:1003D0008DF806008DF8050002208DF80700012138
:1003E000084601F051FB0121022001F04DFB0121E3
:1003F000042001F049FBF02000906946284801F0F4
:10040000A5F83021264801F01FF9C021244801F049
:1004100019F91CBD88B000BF01ACFFF7D4FFFFF78E
:10042000A0FF00F029FA00F051FA00F09EFA00F067
:10043000A9FB40211B4801F08FFEFFF7F5FE00F0FD
:10044000E1FA102000F0A2FC00F0FAFE00F047FFF5
:10045000DFED150A9FED150A204600F057FD00F06C
:10046000C1FD12E0612000F075FC40210C4801F054
:10047000EBF84FF47A7000F0E0FC4021084801F0FE
:10048000E1F84FF47A7000F0D8FCEBE704000020AC
:1004900000000020000C00400B0000200A0000209B
:1004A00000000240004400400AD7233C00001643ED
:1004B000704700BFFEE700BFFEE700BFFEE700BFDA
:1004C000FEE7704770477047704710B50A2000F08C
:1004D000B4FC102003F06CF968B15448007801288E
:1004E00009D100205149087001205149087080212C
:1004F000504801F0A7F8102003F065F910BD70B561
:100500004D494E4803F092F8002849D000240025B8
:1005100049494A4803F0B4F800BF00E0641C42F2C5
:10052000D0008442FADB4021424801F08DF800F00F
:10053000D2FB4348007901280BD14148C07840499B
:10054000897840EA0120032803D101203D49087041
:1005500025E03B480078452821D139484078522889
:100560001DD13748C07A3649897A40EA01200328EC
:1005700015D10020324908704870084680782B4910
:1005800008700846007818B180212A4801F05CF80C
:1005900001202D4908701021264801F055F800BFB0
:1005A00070BD10B529492A4803F040F8A0B1274989
:1005B000274803F065F8274800884FF6FE71084089
:1005C000244908802448007818B90120224908707D
:1005D00010BD01202149087000BFF9E710B50121C5
:1005E0001F4802F0B0FD00B301211D4802F0BCFD20
:1005F0001C480078062806D11648008840F0010003
:100600001449088006E017480078032802D1012029
:100610001549087013480078401C124908700846B4
:1006200000780A2801DD0A20087010BD0D000020A6
:100630000E00002000000240008800208860024078
:10064000281D00200C000020080000202080001041
:1006500010640240000800400F0000200900002044
:10066000000C00400A0000200B0000200CB5002008
:10067000019000907548006840F48030734908602C
:1006800000BF7248006800F4003000900198401CE0
:100690000190009818B90198B0F5A04FF1D16B48BE
:1006A000006800F4003010B10120009001E000204B
:1006B00000900098012844D164484030006840F020
:1006C00080506249403108606148006840F4404011
:1006D0005F4908605D48083000685C49083108607F
:1006E0000846006808600846006840F480500860CA
:1006F0005848091F0860081F006840F08070091FF3
:10070000086000BF5148006800F000700028F9D070
:1007100040F20260504908604C480830006820F000
:1007200003004A49083108600846006840F00200AA
:10073000086000BF45480830006800F00C00082839
:10074000F8D10CBD10B54548006840F4700043492D
:1007500008603E48006840F001003C490860002005
:100760003A4908310860394800683D49084037492E
:1007700008603C48091D0860081F006820F48020BC
:10078000091F0860002031490C310860FFF76EFF37
:100790004FF0006031498039086010BD70B500200D
:1007A0000022022300240221284D08352D6805F07F
:1007B0000C0020B1042806D0082834D107E02A4DC7
:1007C0002A4E356033E02A4D284E35602FE01F4D0C
:1007D0002D1D2D68C5F380541C4D2D1D2D6805F071
:1007E0003F0154B1224DB5FBF1F5184E361D366868
:1007F000C6F3881605FB06F209E01B4DB5FBF1F5C3
:10080000124E361D3668C6F3881605FB06F20F4DEC
:100810002D1D2D68C5F301456D1C6B00B2FBF3F572
:10082000124E356003E0104D104E356000BF00BF22
:10083000064D08352D68C5F303150E4E705D0B4D42
:100840002D68C540094E356070BD0000003802407B
:100850000070004008544107003C024088ED00E071
:10086000FFFFF6FE103000240024F40010000020EA
:1008700000127A001400002010B588B0B448006857
:10088000C0F382242022B349684602F0A5FF5DF838
:1008900024105DF82420012A00D100E000225143F9
:1008A0005DF8240000EBD07252105DF82430012B6B
:1008B00001D0012300E0002302FB0311A64A1268C5
:1008C000B2FBF1F1A54A116008B010BD00B58BB0C4
:1008D0000121022001F021F9022001908DF8080089
:1008E00001208DF8090000208DF80A0001208DF804
:1008F0000B0001A99A4800F029FE02220121984824
:1009000000F0AFFE0020ADF82000ADF82800ADF8F3
:10091000220092480068934990FBF1F0401E099034
:1009200008A9914801F057FF6020ADF80C000120A4
:10093000ADF80E00894800688C4990FBF1F00590F5
:100940000220ADF8180003A9874802F0C5F8082175
:10095000854802F081F90121834801F0A7FF0121B8
:10096000814801F0C1FF0BB000BD00B58BB0012183
:10097000042001F0D2F84FF40070019002208DF8AD
:10098000080000208DF809008DF80A0002208DF87B
:100990000B0001A9724800F0D9FD0222092170481C
:1009A00000F05FFE0020ADF82000ADF82800ADF8A3
:1009B00022006A48006880006A4990FBF1F0401EFE
:1009C000099008A96A4801F006FF6020ADF80C0004
:1009D0000120ADF80E0061480068644990FBF1F019
:1009E00005900020ADF8180003A9614802F074F8E2
:1009F00008215F4802F030F901215D4801F056FFFF
:100A00000BB000BD00B58BB00121084601F085F8A0
:100A10000121082001F081F84FF480600990022044
:100A20008DF8280000208DF829008DF82A0001207B
:100A30008DF82B0009A94A4800F088FD01220A21FF
:100A4000474800F00EFE022009908DF82800002093
:100A50008DF829008DF82A0001208DF82B0009A9B6
:100A6000444800F073FD02220121424800F0F9FDE4
:100A70003A4800683B4990FBF1F0401E80B2ADF867
:100A800018000020ADF82000ADF81A003A480068C0
:100A9000401E079006A9394801F09DFE38480068BD
:100AA000401E079006A94FF0804001F094FE6020A0
:100AB000ADF804000120ADF806000A2003900220E2
:100AC000ADF8100001A92D4801F053FF08212B4873
:100AD00002F0A3F80121294801F0E8FE6020ADF8FA
:100AE00004000120ADF80600042003900020ADF8BA
:100AF000100001A94FF0804001F088FF0821C806CE
:100B000002F0A1F80121880701F0D0FE01211B4865
:100B100002F016FB01221146184802F0FDFA0121ED
:100B2000164801F0E1FE0121880701F0DDFE1248C0
:100B300000680B38114924310860114800680C38EE
:100B40000907486203200849243108600BB000BD42
:100B500008380240C03F0008100000202400002098
:100B60000004024080841E000004004000093D0093
:100B7000000800400000024004000020000C00407B
:100B80000000002000B595B00121480400F0C5FF29
:100B90000121480500F078FF07220221744800F087
:100BA00060FD07220321724800F05BFD02208DF8F2
:100BB000400001208DF8410000208DF84200012006
:100BC0008DF8430004200F900FA9694800F0BEFC87
:100BD00008200F900FA9664800F0B8FC4FF416509B
:100BE00011900020ADF84800ADF84A00ADF84C0077
:100BF000ADF850000C20ADF84E0011A95D4801F091
:100C000048F900200B900C900D9008904FF48060F4
:100C100006905848001D019000200E900790059006
:100C20004FF400300A900C2004904FF4807009902B
:100C3000C0040090002003904F48029069464F483E
:100C400002F010FC012210214C4802F0D2FC41F6C7
:100C5000DC400490002009904FF00060009040209C
:100C600003904748029069464448183002F0FAFB66
:100C70000121424802F030FC01213E4801F091F987
:100C8000012240213B4801F039FA15B000BD10B5F2
:100C900001213A48183002F01FFC0122802135481A
:100CA00001F02CFA00BF4021324801F055FA00282B
:100CB000F9D000BF33493148183002F06AFC0028EF
:100CC000F8D030492D48183002F07FFC40212948E7
:100CD00001F04FFA10BD10B54FF0FF31002000BFFA
:100CE0000AE0254A125C452A05D1234B421C9A5C36
:100CF000522A00D10146401C0C28F2DB1E4AD27A4F
:100D0000452A04D11C4A1278522A00D10B214A1CD0
:100D1000BAB1002005E00A18174B9A5C1A4B1A5416
:100D2000401CC1F10C028242F5DC002007E0124AAF
:100D3000125CC1F10C030344134CE254401C884282
:100D4000F5DB002003E000220B4B1A54401C0C285A
:100D5000F9DB10BD10B504462146064801F04CF9F8
:100D600000BF4021034801F0F7F90128F9D110BD77
:100D700000000240004400401C1D0020886002402A
:100D80004000002000002020281D00204FF0E0211E
:100D9000096921F004014FF0E0221161C21700EB54
:100DA0005272C2F3C702334B1A701946097801EB2D
:100DB0004102C2EBC1114FF6FF7202EAC1012E4A95
:100DC00011807047014601B970472A4A12784A4398
:100DD0004FF0E0235A6100229A6101221A6100BF9C
:100DE0004FF0E022106900F001021AB100F48032E5
:100DF000002AF5D000224FF0E0231A619A6100BF6B
:100E0000E2E701461C4A12884A434FF0E0235A6148
:100E100000229A6101221A6100BF4FF0E02210699E
:100E200000F001021AB100F48032002AF5D000224D
:100E30004FF0E0231A619A61704770B504464FF491
:100E4000077094FBF0F0C6B24FF4077094FBF0F11A
:100E500000FB114085B205E04FF40770FFF7D1FFAA
:100E6000701EC6B2002EF7D115B12846FFF7C9FF94
:100E700070BD0000280000202A0000202DE9F0416C
:100E80002DED048B06460F469FED510BB0EE408AC8
:100E9000F0EE608A002427E09FED4D0BB0EE408A13
:100EA000F0EE608A25460BE0705D02F032FF41EC07
:100EB000190B53EC182B02F0FFFC41EC180B6D1CC6
:100EC00004F11400A842EFDC9FED430B53EC102B10
:100ED00051EC180B02F098FD41EC180B51EC180B7B
:100EE00002F0EAFE3055641CA7F11300A042D3DCE7
:100EF000254605E051EC180B02F0DEFE70556D1C26
:100F0000BD42F7DBBDEC048BBDE8F08180ED000A4B
:100F1000C0ED050AB7EE001A80ED011AB7EE001A0F
:100F200080ED021A9FED2E1A80ED031A9FED2C1A08
:100F300080ED041A7047F0EE400A90ED010A90ED42
:100F4000001A20EE010A80ED000A90ED010A20EE61
:100F5000001AD0ED051A90ED030A01EE210A80ED8A
:100F6000050A90ED050A90ED021A20EE011A90EDA7
:100F7000050AD0ED021A60EE211A90ED022A90EDDA
:100F8000040A01EE820AC1EE001AC0ED061A90EDC5
:100F9000021AD0ED001AB0EE600A01EE610A90ED7F
:100FA000001AD0ED061A01EE801A80ED001A90EDBD
:100FB000061AD0ED021AB7EE000A01EE610A90EDB2
:100FC000051A20EE010A80ED050A90ED000A70472F
:100FD000000000000000000000000000000034409D
:100FE000CDCCCC3D1CB50121022000F04DFD4FF4CD
:100FF0004070009001208DF8040000208DF806005C
:1010000003208DF8050001208DF807006946894806
:1010100000F09CFA0120884908608849C1F8A402C0
:101020001CBD10B58348006820F440208149086049
:101030000846006840F48020086001207E49091DB0
:1010400008607E49C1F8A0020420FFF7BBFE002023
:101050007949091D08600420FFF7B4FE0020774994
:10106000C1F8A00210BD10B57248006820F44020FD
:10107000704908600846006840F48020086000203D
:101080006D4908606D49C1F8A4020420FFF79AFE7B
:101090000120694908606949C1F8A4020420FFF7EA
:1010A00091FE10BD10B500246248006820F4402075
:1010B0006049086008460068086001205E49091D13
:1010C0000860FFF77FFE01205C49C1F8A002FFF72E
:1010D00079FE07E0601CC4B2FA2C03DDFFF7C3FF02
:1010E000012010BD54487C3800680028F2D15249D4
:1010F000086000BFF5E710B500204F4908604D4873
:10110000006820F440204B4908600846006840F41D
:101110008020086000204949C1F8A4020220FFF79E
:1011200051FE0120444908600220FFF74BFE0020D9
:101130004249C1F8A00210BD10B500203E49086028
:101140003C48006820F440203A490860084600689E
:1011500040F48020086001203849C1F8A402022030
:10116000FFF730FE0120344908600220FFF72AFE15
:1011700000203249C1F8A00210BD70B504462D48C8
:10118000006820F440202B4908600846006840F4BD
:1011900080200860002028490860002517E0E00949
:1011A0002549091D08606006040E0220FFF70AFEAB
:1011B00001202249C1F8A0020220FFF703FE00200F
:1011C0001D4908600220FFF7FDFD681CC5B2082D0F
:1011D000E5DB70BD70B5054600241648006820F4B4
:1011E000402014490860084600680860002616E0A0
:1011F0000020114908600220FFF7E4FD01200F499B
:10120000C1F8A0026006040E0B487C38006808B1E3
:10121000601CC4B20120FFF7D5FD701CC6B2082EB9
:10122000E6DB15B9FFF788FF01E0FFF764FF204612
:1012300070BD000000040240A08240420080404295
:101240001CB50121042000F01FFC0121880300F0DF
:1012500075FC1020009000208DF8040003208DF80C
:10126000050001208DF8070069462A4800F06EF954
:101270001CBD10B5044614B101202749087026484A
:10128000007888B11021254800F0C2F960B90A2021
:10129000FFF7D3FD00202049087010211F4800F0FF
:1012A000B7F948B9012010BD10211C4800F0B0F971
:1012B000012801D1184908700020F4E708B50A2078
:1012C0008DF8000001208DF8010002208DF8020049
:1012D00001208DF80300684600F047F808BD1CB5F2
:1012E0000121880300F02AFC0421022000F031FDD6
:1012F0001020009000208DF804000C208DF80500CF
:1013000001208DF80600684602F0ECF9FFF7D6FFE1
:101310001CBD0000000802402C000020001002400C
:101320000948804709480047FEE7FEE7FEE7FEE779
:10133000FEE7FEE7FEE7FEE7FEE7FEE704480549B5
:10134000054A064B70470000450700088901000860
:1013500050650020506B002050670020506700202F
:1013600032490143324A1160704770B500210023B1
:101370000F22C4781CB32E4C246804F4E064C4F536
:10138000E064C4F30721C1F10404E3B20A414478E4
:101390009C40E1B28478144021430C07210E254C77
:1013A00005786155047804F01F050124AC400578E8
:1013B0006D11AD0005F1E025C5F8004109E00478A4
:1013C00004F01F050124AC401B4D0678761145F84A
:1013D000264070BD194A0A400243154B1B1F1A6074
:1013E000704739B1124A121D12680243104B1B1D7F
:1013F0001A6006E00E4A121D126882430C4B1B1D38
:101400001A607047042808D14FF0E021096941F0C3
:1014100004014FF0E022116107E04FF0E02109697B
:1014200021F004014FF0E022116170470000FA053D
:101430000CED00E000E400E080E100E080FFFF1F31
:1014400010B504469848844208D10121084600F0AE
:1014500086FB0021012000F082FB76E09348844265
:1014600008D10121022000F07AFB0021022000F0C7
:1014700076FB6AE08E48844208D10121042000F006
:101480006EFB0021042000F06AFB5EE08948844284
:1014900008D10121082000F062FB0021082000F0A3
:1014A0005EFB52E08448844208D10121102000F004
:1014B00056FB0021102000F052FB46E07F4884429A
:1014C00008D10121202000F04AFB0021202000F05B
:1014D00046FB3AE07A48844208D10121402000F0DE
:1014E0003EFB0021402000F03AFB2EE0754884428C
:1014F00008D10121802000F032FB0021802000F083
:101500002EFB22E07048844208D10121801500F0B2
:1015100026FB0021A01500F022FB16E06B48844258
:1015200008D10121401500F01AFB0021601500F0E0
:1015300016FB0AE06648844207D10121001500F03D
:101540000EFB0021201500F00AFB10BDF0B50A4685
:1015500000210023002400BF3DE0012505FA01F32E
:10156000156805EA03049C4234D105684F00032640
:10157000BE40B543056015794E00B5400668354359
:1015800005601579012D02D01579022D16D18568D7
:101590004F000326BE40B543856055794E00B540E7
:1015A000866835438560456801268E40B5434560B1
:1015B000456896798E40B6B235434560C5684F00A0
:1015C0000326BE40B543C560D5794E00B540C66818
:1015D0003543C560491C1029BFD3F0BD4FF6FF71DC
:1015E00001600021017141718171C171704708B5BD
:1015F0004FF480320092009A0A430092009AC2612E
:10160000C161009AC261C2690092C269009208BDBC
:101610000246002013690B400BB1012000E00020BE
:1016200070470146086980B270470246002053693E
:101630000B400BB1012000E00020704701464869D3
:1016400080B2704701837047418370470AB10183BC
:1016500000E0418370474161704742694A404261FE
:101660007047F0B5002300244D07ED0E02FA05F394
:10167000CE1000F1200555F826504E07F70E0F2624
:10168000BE40B543CF1000F1200646F82750CE10DB
:1016900000F1200555F8265045EA0304CE1000F16C
:1016A000200545F82640F0BD00000240000402403D
:1016B00000080240000C02400010024000140240EA
:1016C00000180240001C024000200240002402409A
:1016D00000280240F948006840F00100F74908601E
:1016E0000020F64908310860F4480068F4490840D1
:1016F000F2490860F348091D0860F348EF49843156
:101700000860F0481038091D0860EC48006820F4B3
:101710008020EA4908600020E8490C310860E74968
:101720008C31086070470021E44A921C1170114608
:101730000870704710B501460022002300204A11AE
:10174000012A02D1DD4C236808E0022A03D1DB4CD8
:101750007034236802E0D94C7434236801F01F020E
:10176000012494401C400CB1012000E0002010BD79
:1017700038B5002000900024002500BF3120FFF77D
:10178000D9FF05460098401C00900098B0F5A04F86
:1017900001D0002DF2D03120FFF7CCFF08B1012499
:1017A00000E00024204638BD01460020C34A1068EE
:1017B00020F0F80040EAC10010607047C34908609B
:1017C00070470021BD4A703211701170012802D09B
:1017D00004280AD104E00121B84A7032117005E0F2
:1017E0000521B64A7032117000E000BF00BF70479B
:1017F000B7490860704770B5049C41EA821501261C
:10180000C6EB530645EA0645054345EA0465AB4E7B
:10181000361D356070BDAD4908667047820142EAE9
:101820000172A64B84331A607047A84988667047D6
:1018300010B5830143EA016343EA02739F4C883485
:10184000236010BDA14908677047A049C86470476C
:1018500002460020994B0833186820F0EC6042EAF9
:1018600001031843954B0833186070470246002067
:10187000924B0833186820F0784042EA010318437D
:101880008E4B083318607047014600208B4A08329F
:10189000106820F003000843106070478748083044
:1018A000006800F00C00704701460020834A0832AF
:1018B000106820F0F00008431060704701460020D7
:1018C0007E4A0832106820F4E050084310607047E8
:1018D00001460020794A0832106820F4604040EA4E
:1018E000C10010607047F0B50021002200240225DD
:1018F00000260223714F08373F6807F00C0121B121
:10190000042905D0082937D105E0724F076036E079
:10191000714F076033E0694F3F1D3F68C7F3805642
:10192000664F3F1D3F6807F03F036EB16A4FB7FB3C
:10193000F3F7DFF888C10CF1040CDCF800C0CCF33D
:10194000881C07FB0CF40CE0624FB7FBF3F7DFF8E1
:101950006CC10CF1040CDCF800C0CCF3881C07FB54
:101960000CF4564F3F1D3F68C7F301477F1C7D00B5
:10197000B4FBF5F7076002E0564F076000BF00BFF9
:101980004E4F08373F6807F0F0010909534F7A5C62
:101990000768D7404760494F08373F6807F4E05170
:1019A000890A4E4F7A5C4768D7408760434F0837B3
:1019B0003F6807F46041490B484F7A5C4768D7405D
:1019C000C760F0BD002100F44072B2F5407F0AD13B
:1019D0003A4A0832116821F4F811414A0240114391
:1019E000364A08321160354A70321268C0F30B0370
:1019F0001A43324B70331A607047354944390860D6
:101A0000704733494039086070473649086070476D
:101A100001460020294A8C32106820F01F004A1E1F
:101A20001043264A8C321060704701460020234A3A
:101A30008C32106820F4F8504A1E40EA02201F4AF7
:101A40008C3210607047014600201C4A8C321068AE
:101A500020F4401008431060704701460020174AE8
:101A60008C32106820F44000084310607047014633
:101A70000020124A8C32106820F440300843106075
:101A8000704719490860704739B10C4A3032126802
:101A900002430A4B30331A6006E0084A30321268BB
:101AA0008243064B30331A607047F9B1034A34322F
:101AB00012680243014B34331A601CE000380240C4
:101AC000FFFFF6EA103000240030002000004742FB
:101AD000800E47420024F40000127A002D000020FE
:101AE000FFFCFF0F5C014742E01147428F4A12683A
:101AF00082438E4B1A60704739B18C4A121D1268AE
:101B000002438A4B1B1D1A6006E0884A121D1268A8
:101B10008243864B1B1D1A60704739B1834A0C32D1
:101B200012680243814B0C331A6006E07F4A0C3284
:101B3000126882437D4B0C331A60704739B17B4A7F
:101B4000103212680243794B10331A6006E0774A6C
:101B5000103212688243754B10331A60704739B1E6
:101B6000724A243A12680243704B243B1A6006E022
:101B70006E4A243A126882436C4B243B1A607047C9
:101B800039B16A4A203A12680243684B203B1A6016
:101B900006E0664A203A12688243644B203B1A6092
:101BA000704739B1614A1C3A126802435F4B1C3BD3
:101BB0001A6006E05D4A1C3A126882435B4B1C3B8C
:101BC0001A60704739B1594A143A12680243574BA8
:101BD000143B1A6006E0554A143A12688243534B8C
:101BE000143B1A60704739B1504A103A12680243E8
:101BF0004E4B103B1A6006E04C4A103A1268824382
:101C00004A4B103B1A60704739B1484A1C3212687F
:101C10000243464B1C331A6006E0444A1C321268E9
:101C20008243424B1C331A60704739B13F4A20321D
:101C3000126802433D4B20331A6006E03B4A2032D3
:101C400012688243394B20331A60704739B1374AE2
:101C5000243212680243354B24331A6006E0334ABB
:101C6000243212688243314B24331A60704739B1F1
:101C70002E4A2C32126802432C4B2C331A6006E099
:101C80002A4A2C3212688243284B2C331A60704740
:101C900039B1264A303212680243244B30331A607D
:101CA00006E0224A303212688243204B30331A60F9
:101CB0007047012808D11D493C31096841F00801ED
:101CC0001A4A3C32116007E018493C31096821F09A
:101CD0000801164A3C321160704739B1134A273A5D
:101CE00012780243114B273B1A7006E00F4A273A3D
:101CF000127882430D4B273B1A7070470B484030D7
:101D0000006840F080700949403108607047014622
:101D10000020064A283A12680A400AB1012000E071
:101D20000020704701492639087070473438024056
:101D300010B501218803FFF756FF00214FF48040C2
:101D4000FFF751FF10BD1C49086070471B4908622E
:101D5000704730B500228B071C0F0F2303FA04F2E3
:101D6000154B08338C1053F824309343124C08342D
:101D70008D1044F8253023468C1053F824308C07FE
:101D8000240F00FA04F423430B4C08348D1044F85C
:101D9000253030BD0949DC310860704708490860CA
:101DA0007047002004492031096801F4807109B1AD
:101DB000012000E000207047003801400000274269
:101DC0000004274210B50446FA48844208D1012194
:101DD0001020FFF708FF00211020FFF704FF57E055
:101DE000F548844209D101214804FFF7EBFE0021A8
:101DF0004FF40030FFF7E6FE4AE0F048844209D194
:101E000001218804FFF7DEFE00214FF48020FFF758
:101E1000D9FE3DE0EA48844209D10121C804FFF718
:101E2000D1FE00214FF40020FFF7CCFE30E0E54862
:101E3000844209D101210805FFF7C4FE00214FF4B7
:101E40008010FFF7BFFE23E0DF48844208D1012164
:101E50002020FFF7C8FE00212020FFF7C4FE17E076
:101E6000DA48844209D101218807FFF7ABFE00213F
:101E70004FF08040FFF7A6FE0AE0D548844207D124
:101E800001214005FFF79EFE00216005FFF79AFE45
:101E900010BD2DE9FF4705460E460024A14600BFB0
:101EA000A046B08900B100BF2C8A24F44054F088C9
:101EB00004432C82AC8941F20C608443B0883189A0
:101EC0000843718908430443AC81AC8A24F440740C
:101ED000B0890443AC826846FFF705FDB5488542EA
:101EE00002D0B948854202D1DDF80C9001E0DDF85E
:101EF0000890A88900F4004040B109EBC90000EB4C
:101F0000091031684900B0FBF1F707E009EBC9009F
:101F100000EB091031688900B0FBF1F76420B7FBD2
:101F2000F0F004012009642101FB1078A88900F475
:101F3000004040B1322000EBC800B0FBF1F000F0EF
:101F40000700044308E0322000EB08106421B0FBD6
:101F5000F1F000F00F0004432C81BDE8FF874FF43F
:101F60001651016000218180C18001810C214181D5
:101F700000218181704710B502460020108A20F4AC
:101F800070600B884C8823438C882343CC88234380
:101F90001843108210BD0021018041808180C180E2
:101FA000704721B1828942F40052828104E0828923
:101FB0004DF6FF731A4082817047028B02F47F4214
:101FC0000283028B0A430283704721B1828942F463
:101FD0000042828103E08289C2F30E02828170474F
:101FE00021B1828A42F40062828204E0828A4FF246
:101FF000FF731A4082827047C1F3080282807047E3
:1020000001468888C0F308007047028A4FF6F073D3
:102010001A400282028A0A430282704721B18289F1
:1020200042F00202828104E082894FF6FD731A4079
:102030008281704782894FF2FF731A4082818289C0
:102040000A4382817047028A4FF6DF731A40028288
:10205000028A0A430282704721B1028A42F4804216
:10206000028204E0028A4BF6FF731A400282704734
:10207000818941F001018181704721B1828A42F05A
:102080000802828204E0828A4FF6F7731A40828245
:102090007047028BD2B20283028B42EA0122028392
:1020A000704721B1828A42F02002828204E0828A53
:1020B0004FF6DF731A408282704721B1828A42F064
:1020C0001002828204E0828A4FF6EF731A40828205
:1020D0007047828A4FF6FB731A408282828A0A43D3
:1020E0008282704721B1828A42F00202828204E039
:1020F000828A4FF6FD731A40828270471AB1838A32
:102100000B43838202E0838A8B4383827047F0B55E
:102110000346002400260025002040F66A17B94235
:1021200000D100BF1846C1F3421401F01F06012779
:1021300007FA06F5012C01D10C3004E0022C01D184
:10214000103000E014301AB107682F43076002E036
:102150000768AF430760F0BD02460020B1F5007F7D
:1021600000D100BF13880B400BB1012000E000201C
:10217000704701F40072B2F5007F00D100BFCA437E
:102180000280704770B5024600240023002500201D
:1021900040F66A16B14200D100BFC1F3421501F00A
:1021A0001F03012606FA03F3012D13D1968933404C
:1021B00017E00000001001400044004000480040CB
:1021C000004C0040005000400014014000780040E6
:1021D000007C0040022D02D1168A334001E0968A2D
:1021E00033400C12012606FA04F41688344013B169
:1021F0000CB1012000E0002070BD10B500220023CA
:1022000040F66A14A14200D100BF0A120124944092
:10221000A3B2DC43048010BD10B501210802FFF712
:10222000E2FC00214FF48070FFF7DDFC10BD30B5FB
:102230000246002000235068F84C20400D790C68BD
:1022400044EA0524204350609068F54C2040D1E9D1
:1022500003542C438D682C434D7944EA45042043B4
:102260009060D06A20F470000C7D641EE4B22343B9
:1022700040EA0350D06230BD00210160017141711C
:102280008160C16001610121017570470021E54A4B
:102290001168E54A1140D0E900231A4383681A43C4
:1022A000C3681A431143E14AC2F80413704700217E
:1022B000016041608160C160704721B1826842F075
:1022C0000102826003E0826822F0010282607047AE
:1022D0000A4600214168D64B1940114341607047BE
:1022E0004162826270470A460021416821F01F0165
:1022F00011434160704738B1CA49096841F400018F
:10230000CA4AC2F8041306E0C649096821F400016C
:10231000C64AC2F80413704738B1C249096841F48B
:102320008001C24AC2F8041306E0BE49096821F4DC
:102330008001BE4AC2F804137047F0B504460D464A
:1023400000200021092D11DDE068A5F10A0606EB49
:102350004607072606FA07F18843A5F10A0606EBA9
:10236000460603FA06F10843E0600CE0206905EB3D
:102370004507072606FA07F1884305EB450603FAE9
:1023800006F108432061072A0FDA606B561E06EB40
:1023900086071F2606FA07F18843561E06EB8606B7
:1023A00005FA06F10843606322E00D2A0FDA206B7C
:1023B000D61F06EB86071F2606FA07F18843D61FAD
:1023C00006EB860605FA06F10843206310E0E06A92
:1023D000A2F10D0606EB86071F2606FA07F18843D1
:1023E000A2F10D0606EB860605FA06F10843E06247
:1023F000F0BD816841F08041816070470146002056
:102400008A6802F080420AB1012000E00020704793
:1024100021B1826842F48062826003E0826822F423
:1024200080628260704721B1826842F0020282605D
:1024300003E0826822F002028260704710B50A460B
:1024400000210023416821F46041531E41EA4331D9
:10245000416010BD21B1426842F40062426003E075
:10246000426822F40062426070470146C86C80B244
:1024700070476C48001D0068704721B1826842F4C3
:102480008072826003E0826822F48072826070470A
:1024900021B1826842F40072826003E0826822F413
:1024A00000728260704738B15E49096841F400519A
:1024B0005E4AC2F8041306E05A49096821F4005143
:1024C0005A4AC2F804137047F0B504461546002076
:1024D00000220026092911DDE068A1F10A0707EBB7
:1024E000470C072707FA0CF29043A1F10A0707EB04
:1024F000470703FA07F21043E0600CE0206901EBA4
:10250000410C072707FA0CF2904301EB410703FA4D
:1025100007F210432061A06BC0F30156EF1C06F1D7
:10252000010CA7EB0C0707EB870C1F2707FA0CF22F
:102530009043EF1C06F1010CA7EB0C0707EB870794
:1025400001FA07F21043A063F0BD10B50A4600215E
:102550000023816B21F44011531E41EA0351816332
:1025600010BD08B5002300930090009B0B4400931E
:10257000009B1A6008BD0A460021816821F4702181
:102580001143816070470A460021816821F440119F
:10259000114381607047816841F480018160704718
:1025A000014600208A6802F480020AB1012000E09E
:1025B0000020704721B1426842F48062426003E02B
:1025C000426822F480624260704721B1426842F45E
:1025D0008052426003E0426822F4805242607047B9
:1025E00008B5024600200090009201F12800009BEF
:1025F000184400900098006880B208BD10B50B46E2
:102600000021D9B2012404FA01F11AB144680C4343
:10261000446002E044688C43446010BDFFFEFFFC50
:10262000FDF7FFC004230140E030FCFF0020014023
:10263000FFFD3FFF0246002013680B400BB1012055
:1026400000E000207047CA430260704770B5024640
:102650000020002300240B12556801268E4005EA55
:10266000060415681D4015B10CB1012000E00020E2
:1026700070BD00220A12D3430360704710B50446B0
:10268000FE48844208D101210846FFF7ACFA002138
:102690000120FFF7A8FA9DE0B4F1804F08D1012195
:1026A0000846FFF78FFA00210120FFF78BFA91E02F
:1026B000F348844208D101210220FFF783FA002168
:1026C0000220FFF77FFA85E0EE48844208D101211D
:1026D0000420FFF777FA00210420FFF773FA79E06E
:1026E000E948844208D101210820FFF76BFA002154
:1026F0000820FFF767FA6DE0E448844208D1012121
:102700001020FFF75FFA00211020FFF75BFA61E06D
:10271000DF48844208D101212020FFF753FA00212D
:102720002020FFF74FFA55E0DA48844208D1012112
:102730000220FFF758FA00210220FFF754FA49E07F
:10274000D548844209D101210804FFF74CFA002141
:102750004FF48030FFF747FA3CE0D048844209D17B
:1027600001214804FFF73FFA00214FF40030FFF742
:102770003AFA2FE0CA48844209D101218804FFF7C0
:1027800032FA00214FF48020FFF72DFA22E0C548ED
:10279000844208D101214020FFF714FA0021402093
:1027A000FFF710FA16E0C048844208D101218020CA
:1027B000FFF708FA00218020FFF704FA0AE0BB487F
:1027C000844207D101218015FFF7FCF90021A015F3
:1027D000FFF7F8F910BD00220288A84B98420ED0EE
:1027E000AC4B98420BD0B0F1804F08D0A44B98422C
:1027F00005D0A44B984202D0A34B984204D14FF687
:102800008F731A404B881A43A04B984207D0A04BB5
:10281000984204D04FF6FF431A400B891A430280B6
:102820004B68C3620B880385944B984202D0994B46
:10283000984201D18B7A03860123838270474FF03F
:10284000FF31416000210180018141808172704728
:102850000185828270470A46002101884FF68F73F6
:10286000194011430180704741627047C16270474F
:102870000146486A70470146088D704721B10288B9
:1028800042F00202028004E002884FF6FD731A4013
:102890000280704721B1028842F00402028004E005
:1028A00002884FF6FB731A400280704721B10288FC
:1028B00042F08002028004E002884FF67F731A40E3
:1028C0000280704702884FF6F7731A400280028830
:1028D0000A430280704702884FF6FF431A40028085
:1028E00002880A430280704721B1028842F0010247
:1028F000028004E002884FF6FE731A40028070479F
:1029000070B5002400220023058C4FF6FE7635407A
:102910000584028C8388048B4FF68F752C40B51E7E
:102920002C400D882C43751E2A408D892A434D88E2
:102930002A43524DA84202D0564DA84213D14FF619
:10294000F7752A40CD892A434FF6FB752A408D88BA
:102950002A434FF6FF652B404FF6FF552B400D8A5B
:102960002B434D8A2B43838004838D684563028407
:1029700070BD70B5002400220023058C4FF6EF7661
:1029800035400584028C8388048B48F6FF752C4003
:102990004FF6FF452C400D884FF6FF7606EA0525D9
:1029A0002C434FF6DF752A408D8906EA05152A4328
:1029B0004D8806EA05152A43304DA84202D0354D10
:1029C000A8421DD14FF67F752A40CD894FF6FF767C
:1029D00006EA05152A434FF6BF752A408D8806EA98
:1029E00005152A434FF6FF352B404FF2FF752B405C
:1029F0000D8A06EA85052B434D8A06EA85052B4399
:102A0000838004838D688563028470BD70B5002463
:102A100000220023058C4FF6FF6635400584028CAA
:102A20008388848B4FF68F752C404FF6FC752C40B5
:102A30000D882C434FF6FF552A408D894FF6FF76BF
:102A400006EA05252A434D8806EA05252A430B4D4B
:102A5000A84202D00F4DA84238D14FF2FF752A404C
:102A6000CD894FF6FF7606EA05252A434FF6FF3556
:102A70002A408D8806EA05252A4319E00000014016
:102A80000004004000080040000C0040001000401E
:102A90000014004000040140004001400044014097
:102AA0000048014000180040001C00400020004089
:102AB0004EF6FF752B404DF6FF752B400D8A06EA4A
:102AC00005152B434D8A06EA05152B438380848325
:102AD0008D68C563028470BD70B500220023002498
:102AE000058C4EF6FF7635400584038C8488828BF6
:102AF00048F6FF752A404FF6FF452A400D884FF6ED
:102B0000FF7606EA05252A434DF6FF752B408D8991
:102B100006EA05352B434D8806EA05352B43FE4D65
:102B2000A84202D0FD4DA84208D14BF6FF752C40BB
:102B30000D8A4FF6FF7606EA85152C438480828342
:102B40008D680564038470BD00210180418081800F
:102B500081608181C18101824182704770B50346E5
:102B6000002000241846183001258D40ACB21D8C81
:102B7000A5431D8409B108290AD100EB610005684D
:102B80004FF68F76354005600568154305600FE008
:102B90000D1FC5F34E052844056848F6FF763540FD
:102BA000056005684FF6FF7606EA022635430560A4
:102BB00070BD4163704781637047C16370470164B2
:102BC00070470A460021018B4FF68F73194011435D
:102BD000018370470A460021018B48F6FF731940B4
:102BE0004FF6FF7303EA02231943018370470A4635
:102BF0000021818B4FF68F731940114381837047F9
:102C00000A460021818B48F6FF7319404FF6FF7387
:102C100003EA02231943818370470A460021018B8E
:102C20004FF6F77319401143018370470A4600219C
:102C3000018B4FF2FF7319404FF6FF7303EA022333
:102C40001943018370470A460021818B4FF6F773C1
:102C500019401143818370470A460021818B4FF24E
:102C6000FF7319404FF6FF7303EA02231943818370
:102C700070470A460021018B4FF6FB731940114340
:102C8000018370470A460021018B4FF6FF3319403C
:102C90004FF6FF7303EA02231943018370470A4684
:102CA0000021818B4FF6FB731940114381837047DC
:102CB0000A460021818B4FF6FF3319404FF6FF7310
:102CC00003EA02231943818370470A460021018BDE
:102CD0004FF67F7319401143018370470A46002164
:102CE000018BC1F30E014FF6FF7303EA0223194370
:102CF000018370470A460021818B4FF67F7319408C
:102D00001143818370470A460021818BC1F30E0174
:102D10004FF6FF7303EA02231943818370470A4683
:102D20000021018C4FF6FD73194011430184704757
:102D30000A460021018C4FF6F773194011430184B4
:102D400070470A460021018C4FF6DF7319404FF699
:102D5000FF7303EA02131943018470470A460021F6
:102D6000018C4FF67F7319404FF6FF7303EA02138D
:102D70001943018470470A460021018C4FF6FF5326
:102D800019404FF6FF7303EA022319430184704789
:102D90000A460021018C4FF2FF7319404FF6FF7372
:102DA00003EA02231943018470470A460021018C7B
:102DB0004DF6FF7319404FF6FF7303EA02331943D0
:102DC0000184704730B5002301248C40A3B2048CE9
:102DD0009C430484048C02FA01F5ADB22C430484B4
:102DE00030BD30B5002304248C40A3B2048C9C4336
:102DF0000484048C02FA01F5ADB22C43048430BD86
:102E0000828B4FF2FF331A408283828B4FF6FF731F
:102E100003EA01231A4382837047F0B50C46154636
:102E2000002100220026078C4EF6FF7C07EA0C07E3
:102E30000784818B028C4FF6FF7707EA043640F651
:102E4000FF4739404FF6FF7707EA052739434FF62A
:102E5000FF7707EA0337394345F6FF773A4046F4F0
:102E600080573A4381830284F0BD828B4FF6F3731F
:102E70001A408283828B0A4382837047F0B50C46E6
:102E80001546002100220026078C4FF6FF6C07EA4A
:102E90000C070784818B028C4FF6FF7707EA042624
:102EA0004FF60C7739404FF6FF7707EA03172F43A9
:102EB00039434FF2FF573A4046F480773A438183D3
:102EC0000284F0BD028B4FF2FF331A400283028B63
:102ED0004FF6FF7303EA01231A4302837047F0B5EC
:102EE0000C461546002100220026078C4FF6EF7C89
:102EF00007EA0C070784018B028C4FF6FF7707EA7D
:102F0000041640F6FF4739404FF6FF7707EA0337CC
:102F100039434FF6FF7703E0000001400004014011
:102F200007EA052739434FF65F773A4046F0100726
:102F30003A4301830284F0BD028B4FF6F3731A40CB
:102F40000283028B0A4302837047F0B50C46154694
:102F500000210022068C4FF6FE773E400684018B4E
:102F6000028C4FF60C7631407E1C06EA03162E4387
:102F700031434FF6F576324044F001063243018387
:102F80000284F0BD70B505460C46208850B92389EF
:102F9000A28861882846FFF7D8FFE1882846FFF716
:102FA000CBFF25E0208804280AD12389A2886188E4
:102FB0002846FFF794FFE1882846FFF783FF17E0D4
:102FC000208808280AD12389A28861882846FFF72B
:102FD00055FFE1882846FFF748FF09E02389A288CA
:102FE00061882846FFF719FFE1882846FFF708FFA8
:102FF00070BD002101804180012181800021C180BC
:10300000018170472DE9F04105460C460026012755
:10301000608808B9022600E00026A088012801D1B6
:10302000022700E001272088A0B92389A2886188AF
:103030002846FFF78AFFE1882846FFF77DFF2389AE
:103040003A4631462846FFF74AFFE1882846FFF70F
:1030500039FF13E02389A28861882846FFF73FFFE4
:10306000E1882846FFF72EFF23893A463146284655
:10307000FFF76BFFE1882846FFF75EFFBDE8F081B0
:103080000146486B70470146886B70470146C86B24
:1030900070470146086C70470A884B881A438B8832
:1030A0001A43CB881A430B891A434B891A438B89DD
:1030B0001A43A0F84420704700210180418081809C
:1030C000C180018141818181704731B1B0F84420D4
:1030D00042F40042A0F8442005E0B0F84420C2F3D6
:1030E0000E02A0F84420704721B1828842F0040209
:1030F000828004E082884FF6FB731A40828070471A
:1031000021B1828842F00102828004E082884FF679
:10311000FE731A40828070471AB183890B43838102
:1031200002E083898B438381704781827047024626
:103130000020138A0B400BB1012000E000207047F3
:10314000CA430282704730B50246002000230024A3
:10315000158A05EA0103958905EA010413B10CB14A
:10316000012000E0002030BDCA430282704741EADE
:103170000203A0F8483070471AB183890B4383815A
:1031800002E083898B438381704721B1828842F0BA
:103190000802828004E082884FF6F7731A4082802A
:1031A000704701894FF6F8721140018170470A4655
:1031B000002101894FF68F73194011430181704737
:1031C00030B504460D4629462046FFF7F0FF20891A
:1031D00040F00700208130BD2DE9F04104460D4646
:1031E00016461F46602D06D13B4601223146204639
:1031F000FFF775FE05E03B46012231462046FFF70A
:10320000A4FE29462046FFF7D2FF208940F00700A0
:103210002081BDE8F08130B50C4600210189C9B29A
:103220004FF6FF7505EA0325154325432943018120
:1032300030BD2DE9F04105460E461746984600245C
:1032400043463A4631462846FFF7E5FF2C894FF6BC
:10325000F870044044F007044FF68F70044044F0C7
:1032600070042C81BDE8F081F0B504460D46164689
:103270001F463B46324629462046FFF7CCFF2089B1
:1032800040F480402081F0BD82884FF68F731A4051
:10329000828082880A438280704702894FF6F873E1
:1032A0001A40028102890A430281704702894FF65F
:1032B0007F731A40028102890A4302817047F0B588
:1032C0000C4615461E460021002200230189028B70
:1032D000038C4FF6F877394021434FF6FC473A40CC
:1032E00040F201173A434FF6DD773B404FF6FF7748
:1032F00007EA06172F433B43018102830384F0BD95
:1033000021B1828842F08002828004E082884FF6F8
:103310007F731A4082807047A0F8501070470000F9
:10332000016821F0010101600021016041608160BC
:10333000C160016121214161DB49884204D13D2105
:10334000D94A103A91608CE0D7491831884205D1AA
:103350004FF47461D44A103A916082E0D24930311E
:10336000884205D14FF47411CF4A103A916078E049
:10337000CD494831884205D14FF07461CA4A103AAC
:1033800091606EE0C8496031884204D1C749C64A9D
:10339000103AD16065E0C4497831884204D1C4490B
:1033A000C14A103AD1605CE0BF499031884204D1F3
:1033B000C049BD4A103AD16053E0BB49A8318842A8
:1033C00005D14FF03D51B84A103AD16049E0BA49B1
:1033D000884204D13D21B84A083A116041E0B6491B
:1033E0001831884205D14FF47461B34A083A11602C
:1033F00037E0B1493031884205D14FF47411AE4AFB
:10340000083A11602DE0AC494831884205D14FF0AF
:103410007461A94A083A116023E0A74960318842E3
:1034200004D1A249A44A121F11601AE0A2497831BE
:10343000884204D19E49A04A121F116011E09E49A2
:103440009031884204D19B499B4A121F116008E0C9
:103450009949A831884204D14FF03D51964A121F34
:103460001160704710B500220268944B1A40CC6876
:103470000B6823434C6923438C692343CC69234362
:103480000C6A23434C6A23438C6A23434C6B2343CB
:103490008C6B23431A430260426922F00702D1E990
:1034A0000B3423431A4342610B6943604B688360CA
:1034B0008B68C36010BD0021016041608160C16004
:1034C000016141618161C161016241628162C162E8
:1034D000016341638163704721B1026842F00102D8
:1034E000026003E0026822F001020260704721B12D
:1034F000026842F40042026003E0026822F40042E3
:103500000260704721B1026842F02002026003E0CD
:10351000026822F020020260704741607047014655
:10352000486880B2704722B1036843F40023036007
:1035300003E0036823F4002303600161704721B1B5
:10354000026842F48022026003E0026822F48022D2
:10355000026070470AB1016100E0C1607047014636
:1035600000200A6802F400220AB1012000E00020D5
:103570007047014600200A6802F001020AB10120EA
:1035800000E000207047014600204A6902F0380040
:10359000704730B503460A4600200024464DAB4232
:1035A00002D24149103901E04349103902F0005577
:1035B0000DB14C6800E00C68414D2C4004EA020556
:1035C0000DB1012000E0002030BD02463A4B9A4286
:1035D00002D23548103801E03748103801F0005366
:1035E0001BB1374B0B40C36002E0354B0B4083608F
:1035F000704710B501F080034BB122B1436943F02D
:103600008003436103E0436923F080034361802921
:103610000BD02AB1036801F01E042343036004E0C9
:10362000036801F01E04A343036010BD70B5024699
:10363000002000240025204EB24202D21A4B103B3B
:1036400001E01D4B103B1F4E0E4036B11E2606EA10
:10365000D124166806EA040502E0566906F08005E2
:1036600001F000560EB15C6800E01C68144E344056
:1036700004EA010616B10DB1012000E0002070BD82
:1036800002460D4B9A4202D20748103801E00A4820
:10369000103801F000531BB1094B0B40C36002E02E
:1036A000074B0B4083607047106002403D000020D4
:1036B000400F002000003D20106402403F801CF0BD
:1036C0007D0F7D0F3C0F3C0F002041490860091D14
:1036D0000860091D0860091D08603E483C49143116
:1036E0000860704700213A498279002A3AD00A4698
:1036F000126803689A430B461A600A1D1268036831
:103700009A430B1D1A60027911440A6803681A4330
:103710000A602F4A0832126803689A432C4B083318
:103720001A601A1D126803689A43294B0C331A60F9
:103730004279102A0ED11A1F126803681A43244BCB
:1037400008331A601A1D126803681A43204B0C33A1
:103750001A600DE01E49427911440A6803681A4351
:103760000A6005E0027911440A6803689A430A6016
:1037700070470021016001710C21417100218171AC
:1037800070471349103109680143114A1032116022
:103790007047014600200E4A143212680A400AB1EE
:1037A000012000E00020704709491431086070478B
:1037B00001460020064A143212680A400AB101206C
:1037C00000E0002070470249143108607047000093
:1037D000003C0140FFFF7F0010B5203AC0F00B8095
:1037E000B1E81850203AA0E81850B1E81850A0E805
:1037F0001850BFF4F5AF5FEA027C24BFB1E818505F
:10380000A0E8185044BF18C918C0BDE810405FEACE
:10381000827C24BF51F8043B40F8043B08BF70474A
:10382000D20728BF31F8023B48BF11F8012B28BF4F
:1038300020F8023B48BF00F8012B704770477047E3
:103840007047754600F02CF8AE46050069465346B1
:1038500020F00700854618B020B5FDF76FFDBDE8E4
:1038600020404FF000064FF000074FF000084FF0E7
:10387000000B21F00701AC46ACE8C009ACE8C00978
:10388000ACE8C009ACE8C0098D46704710B50446E5
:10389000AFF300802046BDE81040FCF7BEBC00003E
:1038A00000487047EC64002001491820ABBEFEE7D9
:1038B000260002007047000010B591EA030F48BFD0
:1038C00083F0004300F19482841A71EB030C05D25B
:1038D000121943EB0C03001B61EB0C01DFF824E130
:1038E0004FEA1154A4EB135C1EEA430F18BF9EEA83
:1038F000445F73D023EA0E03DCF1200E21EA045169
:1039000043F4801332D322FA0CFE10EB0E0023FA9C
:103910000CFE41EB0E01CCF1200E03FA0EFE10EB73
:103920000E0051F10001B1F5801FCCF1200E32D212
:1039300001EB045112FA0EF2BDE8104058BF704777
:10394000401C38BF5FEA420218BF7047002814BF0E
:1039500020F0010041F100014FEA410313F5001F7F
:1039600038BF7047A1F1C04100F034BA012A43EBDF
:103970000302ACF1200CDCF11F0E32BF4FF0000E41
:1039800023FA0CF310EB030041EB0451B4EB115F8D
:10399000D0D0A1EB045101F5801149085FEA300055
:1039A00001EB04510ED350F1000038BF12FA0EFEA5
:1039B00008D1BDE81040C9E7401C38BF5FEA4202A9
:1039C000CAD1C3E7BDE810404FEA410313F5001F19
:1039D00038BF7047A1F1C04100F0FCB99EEA445FD6
:1039E00008D011EA5E0FBDE8104004BF01F00041AD
:1039F00000207047BDE8104070B500F09DF900BF91
:103A000064FBBE3E0000E0FF2DE9C04130B4DFF8AA
:103A1000A0C23CEA111418BF3CEA131400F0EC8079
:103A200081EA03051CEA111444EAD57418BF1CEAA4
:103A3000131500F0C780A4EB05044FF0004545EADC
:103A4000C12145EAC32341EA505143EA525304F1EC
:103A50007F74994204F500344FEAC0204FEAC22235
:103A600008BF904200F09C804FEA13650FF24016A9
:103A7000765D4FEA134506FB05F7C7F1807706FB35
:103A800007F74FEAD737A7FB03687642C8F58038B7
:103A9000A7FB06CE38BFA8F1010807FB08E64FF0E8
:103AA000000EA6FB028CE6FB03CEDCF1000CCEF18F
:103AB000004E38BFAEF1010EA6FB0C584FF00007C8
:103AC0004FF00005E6FB0E87A1FB08C6A0FB07CE62
:103AD00016EB0E0645F10005E1FB076515F1E04E1A
:103AE0007EBFA4F580345FEA46066D4116F180077B
:103AF00045F100054FEA17274FEA066647EA0567D2
:103B0000A6F1DE46B6F1805F4FEA15251FD938468B
:103B100024F0010C05EBC471BCF1FE6F01EB0C113C
:103B200002D8F0BCBDE8008124425CBF01F5801ED4
:103B30009EEAC47F02D4F0BCBDE80081244238D4A0
:103B4000F0BCA1F1C041BDE8004100F043B94FEA2B
:103B5000D22242EA43524FEAD323A7FB02864FEA1E
:103B6000D02040EA415007FB03661EEA0E0F4FEAE1
:103B7000D12105FB026658BFA6EB0056B6EB0056F6
:103B80004FEA520E4EEAC37E18EB0E0E56EB530E62
:103B9000BDD518EB02085E417F1C55F10005B6E764
:103BA0004FF480154FF000074FF000064FF000086B
:103BB000ADE7F0BC4FF0000001F1C04101F0004161
:103BC000BDE8008111EA0C1F0CEA131500D00CE0CF
:103BD00013EA0C1F00F025804FF00000F0BC81EAD2
:103BE000030101F00041BDE80081F0BCBDE80041E7
:103BF00081EA030100F0EEB8F0BCBDE8004170B509
:103C000000F09AF8097EFC3E00F007B881EA030153
:103C10004FF0000001F00041704781EA030100F01D
:103C2000D9B8F0BCBDE800414FF000002149704711
:103C3000FFFDFBF9F7F5F4F2F0EEEDEBE9E8E6E471
:103C4000E3E1E0DEDDDBDAD8D7D5D4D3D1D0CFCDF8
:103C5000CCCBCAC8C7C6C5C4C2C1C0BFBEBDBCBB31
:103C6000BAB9B8B7B6B5B4B3B2B1B0AFAEADACAB2C
:103C7000AAA9A8A8A7A6A5A4A3A3A2A1A09F9F9E06
:103C80009D9C9C9B9A9999989797969595949393B8
:103C9000929191908F8F8E8E8D8C8C8B8B8A89894F
:103CA00088888787868585848483838282818180D2
:103CB0000000FF070000F87F4FEA1153A3F580636F
:103CC000D3F11E03A8BFD3F1200C08DB4FF0004254
:103CD00042EAC12252EA505232FA03F070470942D6
:103CE0000BD4102BC4BF0020704703F5787CBCF1C7
:103CF000FF3F05D04FF0FF3070474FF00000704796
:103D000070B500F019F800BF499224800020704778
:103D1000F0E7B0FA80F310FA03F10AD0C3F11D0303
:103D200003F580634FEA41504FEA035202EBD12181
:103D300070474FF0000070470EF1020E2EF0030E98
:103D40005EF8046B364205D4012A43EB030515F5F2
:103D5000001F12D8012841EB010C1CF5001F0CD8E4
:103D60000ED14FEAD17C15F5001F0CEB4C0C0CF179
:103D7000020C08BF4CEBD37C04E04FF0080C01E0D0
:103D80004FEAD37C0CEB4C0526FA05F606F0070645
:103D9000B6F1040C06D20EEB860CBDE870404CF078
:103DA000010C6047DFE80CF0090B02024FF0004104
:103DB0004FF00000A1F5002170BD19461046012802
:103DC00051EB010418BFD4F5001484BF002001F0AA
:103DD000004170BD0808A0F500114FEA310170479D
:103DE00010B591EA030F48BF83F000433FF56CAD77
:103DF000841A71EB030C07D212198CF0004C43EBC0
:103E00000C03001B61EB0C01DFF8A4E14FEA115435
:103E1000A4EB135C1EEA430F18BF9EEA445F00F058
:103E2000B08023EA6E03524221EA0451C3EB6E03D1
:103E300038BF5B1EDCF1200E25D322FA0CFE10EBFE
:103E40000E0043FA0CFE41EB0E01CCF1200E03FAFA
:103E50000EFE10EB0E0051F10001CCF1200E29D422
:103E600012FA0EF201EB0451BDE8104058BF704742
:103E7000401C1CBFB2F1004F704700280CBF491C0A
:103E800020F00100704712EB020E43EB030218BF53
:103E90004FF0010E4EEA4202ACF1200CDCF11E0E96
:103EA00054D943FA0CFE10EB0E0051F1FF31CCF166
:103EB0001E0ED5D50EF1010E12FA0EFE404141EB59
:103EC000010101EB445C5FEA5C5C10D910EBDE7031
:103ED00001EB045138BFBEF1004FBDE8104018BFE0
:103EE000704700280CBF491C20F00100704730D2F9
:103EF0004FEAD42C11F5001124F400641BD0B1FA60
:103F000081F20B3AA41AA41ED2F12003914030FA98
:103F100003F31943904001EBCC71002C01EB0451E9
:103F2000BDE81040A8BF704701F1C0414FF000004C
:103F300001F000417047B0FA80F310FA03F100D1AC
:103F400010BDE41A173C4805C90AE4E701EB045127
:103F500010BD491001EB0451BDE810404FEA30009C
:103F600002E04FF0000170474A0008BF0042F8D05D
:103F7000B2F5001F28BF704701F000414FF000006C
:103F800070479EEA445F07D011EA5E0FBDE810401B
:103F900004BF002100207047BDE8104070B5FFF756
:103FA000CBFE00BF40DFF63E83F000411046704775
:103FB0000000E0FF4FF04070E1EE100A7047000093
:103FC00001000000000000000000000000000000F0
:103FD00002000000040000000800000010000000C3
:103FE000004000080000002040000000C40100085C
:103FF0004040000840000020106B0000E001000875
:104000001900000020A107000000000000000000CF
:1040100000BD0105000000000000000001020304D3
:104020000607080900000000000000000100000071
:10403000000102030401020304060708090000004E
:040000050800018965
:00000001FF
